:100000000C94D4000C94FC000C94FC000C94FC00A8
:100010000C94FC000C94FC000C94FC000C94FC0070
:100020000C94FC000C94FC000C94B7040C94260572
:100030000C94FC000C94FC000C94FC000C94FC0050
:100040000C94FC000C94FC000C94FC000C94FC0040
:100050000C94FC000C94FC000C94FC000C945807CD
:100060000C94FC000C94FC000C94FC000C94FC0020
:100070000C94FC000C94FC000C94FC000C94FC0010
:100080000C94FC000C94FC000C94FC000C94FC0000
:100090000C94FC000C94FC000C94FC000C94FC00F0
:1000A0000C94FC000C94FC000C94FC00000000007C
:1000B000240027002A002D00300000000000250049
:1000C00028002B002E003100000000002300260035
:1000D00029002C002F000404040404030405020278
:1000E00002020403020202020606060606060404D1
:1000F0000202020404040802011040804010204063
:10010000804080080204018040201002011080100D
:10011000204040200000000200090F0000030401FD
:10012000000C0000000000000000000000000000C3
:10013000000000080B000202020000090400000198
:10014000020200000524001001052401010104241D
:10015000020605240600010705810310004009047A
:100160000100020A00000007050202400000070526
:1001700083024000000403090412010002EF02019F
:100180004041233780000101020301417264756917
:100190006E6F204C4C430041726475696E6F204D48
:1001A0006963726F0000D50711241FBECFEFDAE03C
:1001B000DEBFCDBF21E0A6E2B1E001C01D92A83AAA
:1001C000B207E1F711E0A0E0B1E0E2E0F6E102C041
:1001D00005900D92A632B107D9F710E0C4EDD0E03A
:1001E00004C02197FE010E94F90AC33DD107C9F757
:1001F0000E9406080C94FF0A0C940000FC018091F8
:100200004C01882311F13FB7F89482E08093E90014
:100210002091F200822F90E01816190614F481E064
:1002200090E0882339F0289A44E640934B014091AE
:10023000F1004083222339F02091F200211103C004
:100240002BE62093E8003FBF08958FEF9FEF0895BE
:100250002FB7F89483E08093E9009091E800892F0C
:10026000807295FF04C09091F20080E4891B2FBF3B
:1002700008958091430181110DC082E080933F0178
:1002800084E080934001109242011092410181E08C
:10029000809343018FE391E00895CF93DF931F9202
:1002A000CDB7DEB76983DC01ED91FC910280F3816B
:1002B000E02D41E050E0BE016F5F7F4F09950F9048
:1002C000DF91CF91089583E08093E9008091F2005F
:1002D000882319F08AE38093E80008950E9428019A
:1002E00090E00895CF93DF931F92CDB7DEB7FC0166
:1002F0008485958597FD08C02FEF3FEF35872487CC
:100300000F90DF91CF910895CE0101960E94FE00DB
:10031000019719F4898190E0F3CF8FEF9FEFF0CF31
:100320000F931F93CF93DF931F92CDB7DEB78C014E
:10033000FC018485958597FF0BC0CE0101960E9434
:10034000FE00019771F4898190E0F8019587848718
:10035000F801848595850F90DF91CF911F910F91C2
:1003600008958FEF9FEFF1CFFC018485958597FD70
:100370000BC09FB7F89482E08093E9008091F2006F
:100380009FBF90E0019608959FB7F89482E0809314
:10039000E9008091F2009FBF90E0089540913901FB
:1003A00050913A012091370130913801421753079B
:1003B000B4F49091E8009570E1F39091E80092FD1B
:1003C00019C08093F1008091390190913A01019612
:1003D0008F739927892B19F48EEF8093E800809111
:1003E000390190913A01019690933A018093390135
:1003F00081E0089580E00895DF92EF92FF920F93DD
:100400001F93CF93DF93D82E8A01EB017B01E40E7B
:10041000F51ECE15DF0559F0D7FE12C0FE018491FE
:100420000E94CE0121968111F4CF0FEF1FEFC8017A
:10043000DF91CF911F910F91FF90EF90DF90089582
:100440008881EECF0F931F93CF93DF931F92CDB789
:10045000DEB782E0898342E450E063E371E080E844
:100460000E94FC010E943901DC0112960D911C9141
:100470000115110589F0D801ED91FC910280F381FD
:10048000E02DBE016F5F7F4FC801099597FD04C045
:10049000F80100851185ECCF89810F90DF91CF9114
:1004A0001F910F910895615030F02091F100FC01EF
:1004B00020830196F8CF289A84E680934B01089513
:1004C00081508F3008F047C0E82FF0E0E659FD4F2B
:1004D0000C94F90A87028B0279027F028302AB0235
:1004E000AB02AB028E02940298029C02A202AB0203
:1004F000A602809180008F7780938000089580917C
:1005000080008F7DF9CF80918000877FF5CF84B503
:100510008F7784BD089584B58F7DFBCF8091900047
:100520008F77809390000895809190008F7DF9CF10
:1005300080919000877FF5CF8091C0008F77809366
:10054000C00008958091C0008F7DF9CF8091C200D6
:10055000877F8093C2000895CF93DF93282F30E0E8
:10056000F901EC5EFE4F8491F901EB50FF4FD491FD
:10057000F901EA52FF4FC491CC23A1F081110E94EE
:100580006002EC2FF0E0EE0FFF1FE853FF4FA59144
:10059000B491EC91ED2381E090E009F480E0DF91EB
:1005A000CF91089580E090E0FACF1F93CF93DF932F
:1005B000282F30E0F901EC5EFE4F8491F901EB50F9
:1005C000FF4FD491F901EA52FF4FC491CC23A9F017
:1005D000162F81110E946002EC2FF0E0EE0FFF1F3A
:1005E000E654FF4FA591B4918FB7F894EC91111197
:1005F00008C0D095DE23DC938FBFDF91CF911F9190
:100600000895DE2BF8CF0F931F93CF93DF931F92A4
:10061000CDB7DEB78C01FC01608187E00E94D50276
:10062000F80160818AE00E94D502F80190818091F2
:10063000A60183FB222720F9921781F090FB83F912
:100640008093A60191110AC086FF08C08F7B80931A
:10065000A6011982CE0101960E9403030F90DF913B
:10066000CF911F910F910895CF93DF9390E0FC01FC
:10067000EB50FF4F24918A529F4FFC0184918823B5
:10068000D1F090E0880F991FFC01E455FF4FA59130
:10069000B491FC01E654FF4FC591D49161110EC095
:1006A0009FB7F8948C91E22FE0958E238C9328814C
:1006B000E223E8839FBFDF91CF9108958FB7F8942D
:1006C000EC91E22BEC938FBFF6CF3FB7F89480917B
:1006D000330190913401A0913501B091360126B5D6
:1006E000A89B05C02F3F19F00196A11DB11D3FBF6A
:1006F000BA2FA92F982F8827BC01CD01620F711D39
:10070000811D911D42E0660F771F881F991F4A9532
:10071000D1F70895CF92DF92EF92FF920E94650386
:100720006B017C010E9465036C197D098E099F098C
:10073000683E734081059105A8F3FF90EF90DF902C
:10074000CF9008958F929F92AF92BF92CF92DF92F7
:10075000EF92FF920F931F93CF93DF936C017B0176
:100760008A0180910B01882309F458C080914C01C3
:10077000882309F453C080913E0180FF05C0809119
:10078000E00082608093E000E801B12C8AEFA82E9F
:1007900093E0892E2AE3922E209711F4BB20B9F121
:1007A0000E942801811106C0AA94AA20B9F10E94D2
:1007B0008A03F2CF8C171D0611F00CF08C2F9FB717
:1007C000F8948092E9002091E80025FD02C09FBFC7
:1007D000E3CF282F30E0C21BD30BF701815020F06C
:1007E00041914093F100FACFE20EF31EBB2021F0BD
:1007F0009092E800B12CEBCF8091E80085FDE7CF27
:100800009092E800BB24B394209709F3F3CF5D9A4C
:1008100084E680933D01101611063CF081E090E0E3
:10082000F6019383828310E000E0C801DF91CF914D
:100830001F910F91FF90EF90DF90CF90BF90AF90FE
:100840009F908F900895CF92DF92EF92FF92CF9377
:10085000DF938BE10E94AC02892BD9F7C8E1D0E08D
:10086000C12CD12C7601CC0CDD1CEE1CFF1C61E0F0
:1008700088E00E94D5028BE10E94AC02892B11F026
:100880006894C0F860E088E00E94D502219759F78B
:10089000C3E0D0E061E088E00E94D50260E088E03B
:1008A0000E94D5022197B1F7C701B601DF91CF9120
:1008B000FF90EF90DF90CF9008959091A601892F3F
:1008C000817090FD80915101089560E088E00E9460
:1008D000D5020E945D04882331F060E088E00E9428
:1008E000D5020C94230461E088E00C94D5020F93A8
:1008F0001F93CF9385E00E94AC028C01C1E0019769
:1009000009F0C0E00E945D04C81749F0C09351018E
:100910008091A60181608093A6010E946504809168
:10092000A60182FB992790F9C917B1F0C0FB82F9A3
:100930008093A6010130110579F40E94650360934C
:100940004D0170934E0180934F019093500180911F
:10095000A60180628093A601C09351018091A601F7
:1009600081608093A601CF911F910F9108951F92EE
:100970000F920FB60F9211248F939F938091E100F5
:100980009091E100937F9093E10083FF0FC010925C
:10099000E90091E09093EB001092EC0092E39093C9
:1009A000ED0010924C0198E09093F00082FF22C07D
:1009B00093E09093E9009091F200992319F09AE363
:1009C0009093E80090913D01992341F090913D0171
:1009D000915090933D01911101C05D9890914B0110
:1009E000992341F090914B01915090934B019111BB
:1009F00001C0289884FF18C08091E2008E7E81603B
:100A00008093E2008091E1008F7E8093E1008091ED
:100A10003E018E7E806180933E019F918F910F9069
:100A20000FBE0F901F90189580FFF7CF8091E200C6
:100A30008E7E80618093E2008091E1008E7E8093C3
:100A4000E10080913E018E7E8160E5CF1F920F9282
:100A50000FB60F921124CF92DF92EF92FF920F9375
:100A60001F932F933F934F935F936F937F938F9336
:100A70009F93AF93BF93EF93FF93CF93DF93CDB744
:100A8000DEB76C97DEBFCDBF1092E9008091E80021
:100A900083FF25C068E0CE0145960E94530282EF95
:100AA0008093E8008D8987FF39C09091E80090FF1E
:100AB000FCCF982F907609F034C19E894F89588DCC
:100AC0002F89F88C911131C0803861F580913C01FB
:100AD0008093F1001092F1008EEF8093E8006C9605
:100AE0000FB6F894DEBF0FBECDBFDF91CF91FF915F
:100AF000EF91BF91AF919F918F917F916F915F9196
:100B00004F913F912F911F910F91FF90EF90DF90A8
:100B1000CF900F900FBE0F901F9018959EEF90935F
:100B2000E800C7CF1092F100D5CF913059F4811170
:100B3000D3CF4130510581F680913C018D7F809368
:100B40003C01CACF933049F48111C6CF41305105E1
:100B500019F680913C018260F2CF953041F480918A
:100B6000E80080FFFCCF20682093E300B5CF9630EB
:100B700009F0A9C00B8D1C8D22E01092E9001092A3
:100B80003A0110923901F2122EC0109238011092DF
:100B900037010E9422021F8299E09983FA8291E034
:100BA0009E8390EA98879AEF998720913901309136
:100BB0003A01275F3F4F3C832B838D831092E900DE
:100BC00010923A01109239011093380100933701C5
:100BD00049E050E0BE016F5F7F4F80E00E94FC0162
:100BE0000E94220279CF10933801009337010E94AE
:100BF0003901DC0112960D911C910115110509F4C2
:100C000051C1D801ED91FC910480F581E02DBE0128
:100C10006B5E7F4FC8010995009709F03EC1F8014E
:100C200000851185EACFF3E0FF120EC08F8988237B
:100C300009F440C0823061F440E86DE087E991E05A
:100C40000E94A207811148CF81E28093EB0047CF39
:100C5000813029F440E86BE08BE891E0F1CF8330FC
:100C600099F70E943901DC011296ED90FC908E01FB
:100C70000F5F1F4F6801E114F10479F0D701ED9186
:100C8000FC910680F781E02DB801C7010995080F96
:100C9000111DF701E084F184EECFD8011C92F6011A
:100CA00001900020E9F73197BF016C197D0940E000
:100CB000C601C6CF65E771E0FB01449150E080E8D2
:100CC0000E94FC0109CF973009F4BECF983021F47F
:100CD00081E08093F10000CF993009F0FDCE837060
:100CE00009F0B2CFEDE0F1E081E031E096E321914F
:100CF000222371F08093E9003093EB00DF0111971C
:100D00002C912093EC009093ED008F5F873079F762
:100D10008EE78093EA001092EA008F8980934C015D
:100D2000DBCE8B8D9C8D1092E90010923A011092CF
:100D300039019093380180933701898D811192C0D8
:100D40008E899D89913A49F4813209F07DCF47E03F
:100D500050E064E071E080E0B3CF913209F074CFED
:100D6000833269F48F89988DB0E0A0E08093000110
:100D700090930101A0930201B0930301ADCE8032A4
:100D800069F48091E80082FFFCCF67E084E091E0A5
:100D90000E9453028BEF8093E8009ECE823209F0CE
:100DA0009BCE8F8980930B01EEEFFFE785919491A5
:100DB0008B3F9C4D51F1E0E0F8E08091040190916F
:100DC0000501A0910601B0910701803B9440A10567
:100DD000B105F1F480910B0180FD1AC0EE3F8AE06D
:100DE000F80789F587E797E7918380838091600012
:100DF00080933B0188E19BE00FB6F894A89580931F
:100E000060000FBE9093600067CEEEEFFAE0D5CFA2
:100E1000808191818737974709F05ECEA8958091B0
:100E2000600088618093600080913B018093600046
:100E3000EE3F2AE0F20789F08091FE0A9091FF0AC6
:100E40009183808349CE808191818737980751F2C1
:100E50009093FF0A8093FE0AC5CF1092FF0A10926A
:100E6000FE0A3ACE0E943901DC0112960D911C91C6
:100E70000115110509F4E8CED801ED91FC9101901E
:100E8000F081E02DBE016B5E7F4FC8010995811195
:100E900023CEF80100851185EBCF181619060CF446
:100EA0001BCED2CEF1E0FF12BECE69E771E004CFD7
:100EB0001F920F920FB60F9211242F933F938F938F
:100EC0009F93AF93BF9380912F0190913001A09198
:100ED0003101B091320130912E0123E0230F2D37E3
:100EE00058F50196A11DB11D20932E0180932F016D
:100EF00090933001A0933101B0933201809133017E
:100F000090913401A0913501B09136010196A11D57
:100F1000B11D8093330190933401A0933501B093B8
:100F20003601BF91AF919F918F913F912F910F907B
:100F30000FBE0F901F90189526E8230F0296A11D53
:100F4000B11DD2CFEF92FF920F931F93CF93DF93F8
:100F5000F82E192FE62E042F81E0860F880F0E94AD
:100F6000CE0183E00E94CE01CF2DD12FEC0EFD2EBD
:100F7000F11CCE15DF05B9F007FF13C0FE01849107
:100F80000E94CE01182F80E00E94CE01812321967D
:100F90008111EFCFDF91CF911F910F91FF90EF90D3
:100FA00008958881EDCF81E0F5CFE6E5F1E0138289
:100FB000128288EE93E0A0E0B0E084839583A6835C
:100FC000B78387E191E0918380838FEF9FEF9587CF
:100FD000848761E087E00E94340360E087E00E943C
:100FE000D50261E08AE00E94340360E08AE00E945A
:100FF000D502E6EAF1E08081837888608F7780838C
:10100000E7EAF1E080818E7F80830895CF93DF93BC
:1010100000D01F92CDB7DEB7789484B5826084BDCE
:1010200084B5816084BD85B5826085BD85B58160EC
:1010300085BD80916E00816080936E00109281006A
:101040008091810082608093810080918100816025
:1010500080938100809180008160809380008091E6
:1010600091008260809391008091910081608093D3
:101070009100809190008160809390008091C100E8
:1010800084608093C1008091C10082608093C10020
:101090008091C10081608093C1008091C300816014
:1010A0008093C3008091C00082608093C0008091D3
:1010B000C20081608093C20080917A008460809336
:1010C0007A0080917A00826080937A0080917A0021
:1010D000816080937A0080917A00806880937A00A2
:1010E00010924C0110923C0110923E018091D70069
:1010F00081608093D70080EA8093D80089B58061B1
:1011000089BD89B5826089BD09B400FEFDCF0E940A
:101110008A038091D8008F7C80618093D800809171
:10112000E000807F8093E0008091E1008E7E8093DC
:10113000E1008DE08093E200559A209A5D9828980E
:1011400060E085E00E94340360E08AE10E9434039D
:1011500060E08BE10E94340361E088E00E94340388
:101160000E9465040E9477048091A6018B7F8860AD
:101170008093A60184FD05C087FF03C08F7780930D
:10118000A6010E94650360934D0170934E01809308
:101190004F01909350018091A60180628093A60137
:1011A00086FB882780F98B83CE0103960E94030378
:1011B0008091A6018F778093A60101E080E0E82E60
:1011C00080E0F82EDD24D3940E9477048AE10E9407
:1011D000AC02AC0121E0892B09F420E09091A70139
:1011E000892F8170281709F481C020FB90F9909312
:1011F000A701452B09F47AC08091A60182608093F3
:10120000A6010E945D048823B9F08BE10E94AC0224
:10121000892B09F06BC00E9423040E94D5096093BA
:101220002A0170932B0180932C0190932D018091C2
:10123000A6018D7F8093A6010E945D04882309F496
:1012400055C02091260130912701409128015091ED
:10125000290160912A0170912B0180912C019091BC
:101260002D010E94880A4B015C0120E030E543E437
:1012700057E40E94F40A87FF91C011E020E030E4B7
:101280004CE156E4C501B4010E94D00918160CF4D3
:1012900010E0812F80279091A60197FB222720F94B
:1012A0008217F9F096FB222720F980FB97F990939B
:1012B000A6018823B1F0211114C00E946503609338
:1012C0005201709353018093540190935501809182
:1012D000A60180648093A601DA82CE0102960E9464
:1012E00003038091A60180618093A6018BE10E9497
:1012F000AC028091A60185FF29C00E946503809001
:101300004D0190904E01A0904F01B090500168198E
:1013100079098A099B096032714A87409105B0F0CA
:101320008091A6018F7D8093A60180912A019091E2
:101330002B01A0912C01B0912D01B0588093260172
:1013400090932701A0932801B09329018091A601D1
:1013500086FF1DC00E94650380905201909053014A
:10136000A0905401B0905501681979098A099B0928
:101370006032714A8740910550F08091A6018F7BC1
:101380008093A6011982CE0101960E940303E11405
:10139000F10409F419CF0E94000016CF80E07BCF42
:1013A0000E94120A08F481E00895E89409C097FBAE
:1013B0003EF490958095709561957F4F8F4F9F4F2C
:1013C0009923A9F0F92F96E9BB279395F695879570
:1013D00077956795B795F111F8CFFAF4BB0F11F433
:1013E00060FF1BC06F5F7F4F8F4F9F4F16C08823DA
:1013F00011F096E911C0772321F09EE8872F762F10
:1014000005C0662371F096E8862F70E060E02AF050
:101410009A95660F771F881FDAF7880F969587953C
:1014200097F90895990F0008550FAA0BE0E8FEEF11
:1014300016161706E807F907C0F012161306E40798
:10144000F50798F0621B730B840B950B39F40A2691
:1014500061F0232B242B252B21F408950A2609F46F
:10146000A140A6958FEF811D811D089597F99F6773
:1014700080E870E060E008959FEF80EC089500241C
:101480000A941616170618060906089500240A94E9
:1014900012161306140605060895092E0394000C6F
:1014A00011F4882352F0BB0F40F4BF2B11F460FFFE
:1014B00004C06F5F7F4F8F4F9F4F089557FD905827
:1014C000440F551F59F05F3F71F04795880F97FB08
:1014D000991F61F09F3F79F08795089512161306C2
:1014E0001406551FF2CF4695F1DF08C016161706F1
:1014F0001806991FF1CF8695710561050894089526
:10150000E894BB2766277727CB0197F908955058B1
:10151000BB27AA270E949F0A0C944D0A0E943F0AEB
:1015200038F00E94460A20F039F49F3F19F426F45F
:101530000C943C0A0EF4E095E7FB0C94360AE92F74
:101540000E945E0A58F3BA1762077307840795076B
:1015500020F079F4A6F50C94800A0EF4E0950B2E99
:10156000BA2FA02D0B01B90190010C01CA01A001F5
:101570001124FF27591B99F0593F50F4503E68F150
:101580001A16F040A22F232F342F4427585FF3CF91
:10159000469537952795A795F0405395C9F77EF462
:1015A0001F16BA0B620B730B840BBAF09150A1F0AB
:1015B000FF0FBB1F661F771F881FC2F70EC0BA0F31
:1015C000621F731F841F48F4879577956795B795B9
:1015D000F7959E3F08F0B0CF9395880F08F09927B4
:1015E000EE0F9795879508950E94120A08F48FEFE1
:1015F0000895EE0FFF1F0590F491E02D0994F894E3
:02160000FFCF1A
:10160200FFFFFFFF00E100000000000000C1808139
:10161200000000000000004D01A2036E016301B44E
:06162200017201900100BD
:00000001FF
