:100000000C946B030C9493030C9493030C94930340
:100010000C9493030C9493030C9493030C94930308
:100020000C9493030C9493030C94A60F0C9415104A
:100030000C9493030C9493030C9493030C949303E8
:100040000C9493030C9493030C9493030C949303D8
:100050000C9493030C9493030C9493030C945C0FF3
:100060000C9493030C9493030C9493030C949303B8
:100070000C9493030C9493030C9493030C949303A8
:100080000C9493030C9493030C9493030C94930398
:100090000C9447120C9493030C9493030C949303C5
:1000A0000C9493030C9493030C94930300010307A3
:1000B0000F1F3F7F0080C0E0F0F8FCFE0507000046
:1000C000000000003E5B4F5B3E3E6B4F6B3E1C3EB4
:1000D0007C3E1C183C7E3C181C577D571C1C5E7FC8
:1000E0005E1C00183C1800FFE7C3E7FF0018241847
:1000F00000FFE7DBE7FF30483A060E26297929267C
:10010000407F050507407F05253F5A3CE73C5A7F65
:100110003E1C1C08081C1C3E7F14227F22145F5FBB
:10012000005F5F06097F017F006689956A606060F5
:10013000606094A2FFA29408047E040810207E2030
:100140001008082A1C08081C2A08081E1010101085
:100150000C1E0C1E0C30383E3830060E3E0E0600CB
:100160000000000000005F00000007000700147F8F
:10017000147F14242A7F2A122313086462364956F6
:1001800020500008070300001C2241000041221CEF
:10019000002A1C7F1C2A08083E08080080703000D6
:1001A0000808080808000060600020100804023EEB
:1001B0005149453E00427F4000724949494621412C
:1001C000494D331814127F1027454545393C4A499B
:1001D00049314121110907364949493646494929DA
:1001E0001E000014000000403400000008142241EA
:1001F0001414141414004122140802015909063E73
:10020000415D594E7C1211127C7F494949363E416D
:100210004141227F4141413E7F494949417F09098E
:1002200009013E414151737F0808087F00417F4129
:10023000002040413F017F081422417F4040404060
:100240007F021C027F7F0408107F3E4141413E7FB8
:10025000090909063E4151215E7F091929462649AF
:1002600049493203017F01033F4040403F1F204086
:10027000201F3F4038403F63140814630304780490
:10028000036159494D43007F414141020408102058
:10029000004141417F0402010204404040404000CF
:1002A0000307080020545478407F284444383844D9
:1002B000444428384444287F385454541800087E55
:1002C000090218A4A49C787F0804047800447D40A7
:1002D000002040403D007F1028440000417F400046
:1002E0007C047804787C080404783844444438FC5E
:1002F0001824241818242418FC7C080404084854E2
:1003000054542404043F44243C4040207C1C20409E
:10031000201C3C4030403C44281028444C90909095
:100320007C4464544C4400083641000000770000CF
:10033000004136080002010204023C2623263C1E2E
:10034000A1A161123A4040207A38545455592155A0
:1003500055794122545478422155547840205455BF
:1003600079400C1E5272123955555559395454540E
:100370005939555454580000457C410002457D428E
:100380000001457C407D1211127DF0282528F07C6B
:10039000545545002054547C547C0A097F49324905
:1003A0004949323A4444443A324A4848303A414151
:1003B000217A3A42402078009DA0A07D3D424242F1
:1003C0003D3D4040403D3C24FF2424487E49436657
:1003D0002B2FFC2F2BFF0929F620C0887E09032034
:1003E000545479410000447D413048484A323840F5
:1003F00040227A007A0A0A727D0D19317D26292958
:100400002F28262929292630484D40203808080859
:100410000808080808382F10C8ACBA2F102834FA7A
:1004200000007B000008142A142222142A14085504
:1004300000550055AA55AA55AAFF55FF55FF0000C3
:1004400000FF00101010FF00141414FF001010FF24
:1004500000FF1010F010F0141414FC001414F70036
:10046000FF0000FF00FF1414F404FC141417101F05
:1004700010101F101F1414141F00101010F0000093
:1004800000001F101010101F10101010F0100000AE
:1004900000FF101010101010101010FF10000000BE
:1004A000FF140000FF00FF00001F10170000FC04F5
:1004B000F414141710171414F404F40000FF00F7D8
:1004C00014141414141414F700F71414141714103B
:1004D000101F101F141414F4141010F010F000006A
:1004E0001F101F0000001F14000000FC140000F08B
:1004F00010F01010FF10FF141414FF141010101F30
:1005000000000000F010FFFFFFFFFFF0F0F0F0F040
:10051000FFFFFF0000000000FFFF0F0F0F0F0F385D
:1005200044443844FC4A4A4A347E02020606027EAB
:10053000027E0263554941633844443C04407E20B6
:100540001E2006027E020299A5E7A5991C2A492AC7
:100550001C4C7201724C304A4D4D30304878483056
:10056000BC625A463D3E494949007E0101017E2A4E
:100570002A2A2A2A44445F444440514A4440404481
:100580004A51400000FF0103E080FF000008086BB3
:100590006B083612362436060F090F0600001818AD
:1005A0000000001010003040FF0101001F01011E7B
:1005B00000191D1712003C3C3C3C000000000008E4
:1005C0000B00020202000009040000010202000008
:1005D000052400100105240101010424020605245C
:1005E0000600010705810310004009040100020A0A
:1005F00000000007050202400000070583024000DA
:10060000000403090412010002EF020140412337F4
:100610008000010102030141726475696E6F204C14
:100620004C430041726475696E6F204D6963726F4F
:1006300000DB40A4A6AF2000A1C8DA1221007FA8E9
:100640003F220007D9AED580D300408D00000000C6
:10065000240027002A002D003000000000002500A3
:1006600028002B002E00310000000000230026008F
:1006700029002C002F0004040404040304050202D2
:10068000020204030202020206060606060604042B
:1006900002020204040408020110408040102040BD
:1006A0008040800802040180402010020110801068
:1006B000204040200000000200090F000003040158
:1006C000000C00000000000000000000000000001E
:1006D00000000000991311241FBECFEFDAE0DEBF47
:1006E000CDBF27E0AEE6B1E001C01D92A032B20757
:1006F000E1F711E0A0E0B1E0E4EFF7E302C005901C
:100700000D92AE36B107D9F713E0CBE6D3E004C0C3
:100710002197FE010E94DE19CA36D107C9F70E944F
:1007200014140C94F81B0C940000FC018091F80147
:10073000882311F13FB7F89482E08093E90020917B
:10074000F200822F90E01816190614F481E090E070
:10075000882339F0289A44E64093F7014091F1004C
:100760004083222339F02091F200211103C02BE6AF
:100770002093E8003FBF08958FEF9FEF08952FB7B4
:10078000F89483E08093E9009091E800892F8072CB
:1007900095FF04C09091F20080E4891B2FBF08955B
:1007A0008091EF0181110DC082E08093EB0184E024
:1007B0008093EC011092EE011092ED0181E08093A4
:1007C000EF018BEE91E0089581508F3008F047C023
:1007D000E82FF0E0E251FC4F0C94DE190B040F04FB
:1007E000FD03030407042F042F042F04120418042C
:1007F0001C04200426042F042A04809180008F7793
:10080000809380000895809180008F7DF9CF809142
:100810008000877FF5CF84B58F7784BD089584B538
:100820008F7DFBCF809190008F778093900008950B
:10083000809190008F7DF9CF80919000877FF5CFD8
:100840008091C0008F778093C00008958091C00090
:100850008F7DF9CF8091C200877F8093C200089579
:10086000CF93DF93282F30E0F901EC54F94F8491B6
:10087000F901EB56F94FD491F901EA58F94FC491B7
:10088000CC23A1F081110E94E403EC2FF0E0EE0FE5
:10089000FF1FE859F94FA591B491EC91ED2381E048
:1008A00090E009F480E0DF91CF91089580E090E03E
:1008B000FACF1F93CF93DF93282F30E0F901EC5448
:1008C000F94F8491F901EB56F94FD491F901EA58A7
:1008D000F94FC491CC23A9F0162F81110E94E40393
:1008E000EC2FF0E0EE0FFF1FE65AF94FA591B491FF
:1008F0008FB7F894EC91111108C0D095DE23DC93EA
:100900008FBFDF91CF911F910895DE2BF8CF0F930A
:100910001F93CF93DF931F92CDB7DEB78C01FC01FD
:10092000608187E00E945904F80160818AE00E949A
:100930005904F801908180911A0782FB222720F93F
:10094000921791F090FB82F980931A0791110CC0D5
:1009500080911B0783FF08C0877F80931B07198244
:10096000CE0101960E9487040F90DF91CF911F91D5
:100970000F910895CF93DF9390E0FC01EB56F94F70
:1009800024918A58994FFC0184918823D1F090E0FA
:10099000880F991FFC01E45BF94FA591B491FC010C
:1009A000E65AF94FC591D49161110EC09FB7F894E2
:1009B0008C91E22FE0958E238C932881E223E883AB
:1009C0009FBFDF91CF9108958FB7F894EC91E22B00
:1009D000EC938FBFF6CF3FB7F8948091E7019091E9
:1009E000E801A091E901B091EA0126B5A89B05C0F4
:1009F0002F3F19F00196A11DB11D3FBFBA2FA92F9E
:100A0000982F8827BC01CD01620F711D811D911D9A
:100A100042E0660F771F881F991F4A95D1F7089506
:100A2000CF92DF92EF92FF920E94EB046B017C0168
:100A30000E94EB046C197D098E099F09683E734082
:100A400081059105A8F3FF90EF90DF90CF90089576
:100A50000895CF93DF93AC01E091E001F091E101C3
:100A60003097F1F09091DF018091DE019817C0F08E
:100A700090E0292F30E02617370754F4D901A25906
:100A8000BE4F240F351FE90128812C939F5FF1CFC2
:100A90001092DF016093DE01CB01DF91CF910994C9
:100AA000DF91CF9108954091D4015091D5012091CB
:100AB000D2013091D30142175307B4F49091E8006A
:100AC0009570E1F39091E80092FD19C08093F100D8
:100AD0008091D4019091D50101968F739927892B2C
:100AE00019F48EEF8093E8008091D4019091D501A4
:100AF00001969093D5018093D40181E0089580E020
:100B00000895DF92EF92FF920F931F93CF93DF939D
:100B1000D82E8A01EB017B01E40EF51ECE15DF0510
:100B200059F0D7FE12C0FE0184910E945305219610
:100B30008111F4CF0FEF1FEFC801DF91CF911F910B
:100B40000F91FF90EF90DF9008958881EECF0F9383
:100B50001F93CF93DF931F92CDB7DEB782E08983D7
:100B600042E450E06FEB75E080E80E9481050E944E
:100B7000D003DC0112960D911C910115110589F02D
:100B8000D801ED91FC910280F381E02DBE016F5FF1
:100B90007F4FC801099597FD04C0F80100851185B4
:100BA000ECCF89810F90DF91CF911F910F91089524
:100BB000615030F02091F100FC0120830196F8CFC4
:100BC000289A84E68093F7010895AF92BF92CF925E
:100BD000DF92EF92FF920F931F93CF93DF936C01FD
:100BE0007B018B01040F151FEB015E01AE18BF08DE
:100BF000C017D10759F06991D601ED91FC91019090
:100C0000F081E02DC6010995892B79F7C501DF91A7
:100C1000CF911F910F91FF90EF90DF90CF90BF90F9
:100C2000AF9008958F929F92AF92BF92CF92DF9232
:100C3000EF92FF920F931F93CF93DF936C017B0191
:100C40008A0180910B01882309F458C08091F80132
:100C5000882309F453C08091D80180FF05C080919A
:100C6000E00082608093E000E801B12C8AEFA82EBA
:100C700093E0892E2AE3922E209711F4BB20B9F13C
:100C80000E94BF03811106C0AA94AA20B9F10E9454
:100C90001005F2CF8C171D0611F00CF08C2F9FB7AA
:100CA000F8948092E9002091E80025FD02C09FBFE2
:100CB000E3CF282F30E0C21BD30BF701815020F087
:100CC00041914093F100FACFE20EF31EBB2021F0D8
:100CD0009092E800B12CEBCF8091E80085FDE7CF42
:100CE0009092E800BB24B394209709F3F3CF5D9A68
:100CF00084E68093D701101611063CF081E090E065
:100D0000F6019383828310E000E0C801DF91CF9168
:100D10001F910F91FF90EF90DF90CF90BF90AF9019
:100D20009F908F900895CF93DF931F92CDB7DEB73A
:100D30006983DC01ED91FC910280F381E02D41E0BB
:100D400050E0BE016F5F7F4F09950F90DF91CF910B
:100D5000089583E08093E9008091F200882319F0E0
:100D60008AE38093E80008950E94BF0390E008950D
:100D7000CF93DF931F92CDB7DEB7FC0184859585B5
:100D800097FD08C02FEF3FEF358724870F90DF9145
:100D9000CF910895CE0101960E949503019719F411
:100DA000898190E0F3CF8FEF9FEFF0CF0F931F93E8
:100DB000CF93DF931F92CDB7DEB78C01FC01848502
:100DC000958597FF0BC0CE0101960E949503019770
:100DD00071F4898190E0F80195878487F801848512
:100DE00095850F90DF91CF911F910F9108958FEF0F
:100DF0009FEFF1CFFC018485958597FD0BC09FB7D0
:100E0000F89482E08093E9008091F2009FBF90E027
:100E1000019608959FB7F89482E08093E90080914D
:100E2000F2009FBF90E008952091AF01260F332775
:100E3000331F21323105ECF420911F02FC0190E0B8
:100E400080E0243069F082E00895A091AF01219103
:100E5000AC0141575E4FA40FB52FB11D2C930196E5
:100E6000861798F38091AF01680F6093AF0180E01F
:100E7000089581E0089510921F0281E080931E0280
:100E80001092F90161E082E00E94590461E083E080
:100E90000E945904E9EBF0E080818E7F808380819D
:100EA0008D7F808388E48093B80085E48093BC00C4
:100EB0000895CF93DF9391E090938E018823B9F04A
:100EC000C091B800D091BA008091BC008A7B809319
:100ED000BC0060E082E00E94590460E083E00E9470
:100EE00059040E943B07D093BA00C093B800DF9129
:100EF000CF910895CF92DF92EF92FF920F931F93BD
:100F0000CF93DF93D091480281E0D13208F09CC0AA
:100F1000C09147020E94EB046B017C0180911F028B
:100F200081116CC082E080931F0281E080931E02D9
:100F30008FEF80931D0210921C02D0931B02A7E238
:100F4000B2E0EBEFF1E080E0D8138DC01092FA012F
:100F50008091FA01CC0FC82BC093FA018091F9015E
:100F6000813009F084C01092F9010E94EB046B01FA
:100F70007C018091FA018093BB00809121029091C5
:100F80002202A0912302B0912402892B8A2B8B2B61
:100F9000A1F00E94EB040091210210912202209105
:100FA0002302309124026C197D098E099F090617CE
:100FB00017072807390708F442C08091BC0083FD59
:100FC000D8CF85EC8093BC000E94EB046B017C01C0
:100FD00080911F02823009F44CC080911D028F3F26
:100FE00009F469C080911D02803209F466C08091C5
:100FF0001D02803309F463C084E026C08091210281
:1010000090912202A0912302B0912402892B8A2B75
:101010008B2B09F483CF0E94EB04009121021091E5
:10102000220220912302309124026C197D098E093D
:101030009F09061717072807390708F06FCF809117
:1010400020020E94590785E0109226021092480261
:1010500010922502DF91CF911F910F91FF90EF9099
:10106000DF90CF9008959D9191938F5F6DCF85EE26
:10107000A9CF8091210290912202A0912302B091E8
:101080002402892B8A2B8B2B09F4A2CF0E94EB041C
:10109000009121021091220220912302309124021A
:1010A0006C197D098E099F0906171707280739074C
:1010B00008F08ECFC4CF80E0C7CF82E0C5CF83E0F9
:1010C000C3CF0895E091DF018091DE01E81730F48D
:1010D000F0E0E259FE4F808190E008958FEF9FEF9E
:1010E00008959091DF018091DE012FEF3FEF981777
:1010F00048F4E92FF0E0E259FE4F208130E09F5F95
:101100009093DF01C90108958091DE019091DF0184
:10111000891B990B0895CF92DF92EF92FF920F9364
:101120001F93CF93DF937C01CB018A01209125028D
:10113000222389F0EB016B01C40ED51ECC15DD0511
:1011400069F06991D701ED91FC910190F081E02D5A
:10115000C7010995F3CF642F0E941407C801DF91DE
:10116000CF911F910F91FF90EF90DF90CF90089556
:10117000CF93DF931F92CDB7DEB76983209125020D
:101180002223F9F020914802203258F021E030E08B
:10119000FC013383228390E080E00F90DF91CF91B8
:1011A000089580912602E82FF0E0E95DFD4F9981D6
:1011B00090838F5F809326028093480281E090E0C5
:1011C000ECCF61E0CE0101960E941407F7CFDF92C9
:1011D000EF92FF920F931F93CF93DF937C011091B7
:1011E000B8008CE08093B800D0E0C0E0DD24D39458
:1011F0000CE3D0922502009347021092260210922F
:10120000480260E487E093E00E94B808B7016C0FE1
:101210007D1F40E150E087E093E00E948B080E9430
:101220007A076096C11584E0D80719F71093B800C3
:10123000DF91CF911F910F91FF90EF90DF90089574
:10124000CF93C82F81E0809325028CE380934702DF
:10125000109226021092480260E087E093E00E941C
:10126000B8086C2F87E093E00E94B808CF910C94E7
:101270007A070F931F93CF93DF93EC018C01060F36
:10128000171FFE0184910E9420092196C017D107E3
:10129000C1F7DF91CF911F910F910895CF92DF9207
:1012A000EF92FF92CF93DF938BE10E943004892B62
:1012B000D9F7C8E1D0E0C12CD12C7601CC0CDD1CD3
:1012C000EE1CFF1C61E088E00E9459048BE10E9443
:1012D0003004892B11F06894C0F860E088E00E9427
:1012E0005904219759F7C3E0D0E061E088E00E94FB
:1012F000590460E088E00E9459042197B1F7C701C2
:10130000B601DF91CF91FF90EF90DF90CF900895DD
:10131000FC01908180911B0782FB222720F9921704
:10132000B9F090FB82F980931B07992389F0809193
:10133000140190911501A0911601B0911701B058B8
:1013400080930C0190930D01A0930E01B0930F01B7
:101350000895CF92DF92EF92FF92FC0190818091ED
:101360001A0787FB222720F9921749F190FB87F98A
:1013700080931A07992319F120910C0130910D01E6
:1013800040910E0150910F0160911401709115016F
:1013900080911601909117010E94A5186B017C01A4
:1013A00020E030E0A9010E944917882369F0C0922B
:1013B0001001D0921101E0921201F0921301FF90FE
:1013C000EF90DF90CF90089580E090E0A0E8BFE339
:1013D0008093100190931101A0931201B093130117
:1013E000EECF8091190787FB882780F981118091C2
:1013F0004D02089560E088E00E9459040E94F109BE
:10140000882331F060E088E00E9459040C944E0972
:1014100061E088E00C9459040F931F93CF9385E00B
:101420000E9430048C01C1E0019709F0C0E00E94E5
:10143000F109C81749F0C0934D02809119078068DF
:10144000809319070E94FA0980911A0781FB992756
:1014500090F9C917B1F0C0FB81F980931A070130E8
:10146000110579F40E94EB046093490270934A02DB
:1014700080934B0290934C0280911A078061809375
:101480001A07C0934D02809119078068809319074D
:10149000CF911F910F910895DC01462F16966D9103
:1014A0007C9117971896ED91FC91199714968D9150
:1014B0009C9109948091DE019091DF01891B990B29
:1014C00002972CF087E093E00E947108F3CF87E049
:1014D00093E00C947108089590E080E00895FB017A
:1014E00001900020E9F73197AF01461B570B0C9490
:1014F000E5058F929F92AF92BF92EF92FF920F936A
:101500001F93CF93DF93CDB7DEB7A1970FB6F894B3
:10151000DEBF0FBECDBF7C01FA01CB0119A2223084
:1015200008F42AE08E010F5D1F4F822E912CB12C02
:10153000A12CBF01A50194010E94BC19F901CA01A7
:101540006A300CF5605DD8016E938D01232B242B3E
:10155000252B79F790E080E0109721F0BD01C701BD
:101560000E946F0AA1960FB6F894DEBF0FBECDBFE2
:10157000DF91CF911F910F91FF90EF90BF90AF90AF
:101580009F908F900895695CDECF0F931F93CF9348
:10159000DF93EC0188819981009759F02A813B8182
:1015A0002617370730F081E0DF91CF911F910F911F
:1015B00008958B016F5F7F4F0E94091B009759F0C0
:1015C000998388831B830A832C813D81232B59F7C0
:1015D000FC011082E8CF80E0E7CFCF93DF93EC01EE
:1015E00088819981009711F00E94801A19821882CF
:1015F0001D821C821B821A82DF91CF910895EF9287
:10160000FF920F931F93CF93DF93EC0186179707F9
:1016100081F0FB01008111810115110539F0E48091
:10162000F580B7010E94C50A81110BC0CE010E944E
:10163000ED0ACE01DF91CF911F910F91FF90EF90B6
:101640000895FD82EC82B801888199810E94F11B86
:10165000F0CFEF92FF920F931F93CF93DF93EC01A4
:10166000198218821B821A821D821C8261157105E3
:1016700021F18B01FB0101900020E9F731977F01F7
:10168000E61AF70AB7010E94C50A811109C0CE0106
:10169000DF91CF911F910F91FF90EF900C94ED0A85
:1016A000FD82EC82B80188819981DF91CF911F91F1
:1016B0000F91FF90EF900C94F11BDF91CF911F9150
:1016C0000F91FF90EF900895FC0180819181009728
:1016D00011F00C94801A089585ED8093BC008091E0
:1016E000210290912202A0912302B0912402079638
:1016F000A11DB11D23E0B695A795979587952A95CD
:10170000D1F72091BC0024FD03C010921F02089560
:101710004091210250912202609123027091240293
:10172000452B462B472B69F30097A105B10541F0E6
:101730002AE22A95F1F700C00197A109B109E1CF8A
:10174000809120020C9459070F931F93CF93DF933E
:10175000CDB7DEB72C970FB6F894DEBF0FBECDBF66
:101760008C011A8219821C821B821E821D82CE016C
:1017700001960E94FF0A18861F821A8619861C8607
:101780001B86B801CE0107960E94FF0A2B853C8577
:101790008D819E8128173907D1F48F8198856981C1
:1017A0007A81009761F16115710531F5232B51F1B3
:1017B000FC01808190E008C0232B21F1FB01808196
:1017C00090E091958195910911E0892B09F010E045
:1017D000CE0107960E94640BCE0101960E94640B15
:1017E000812F2C960FB6F894DEBF0FBECDBFDF91D0
:1017F000CF911F910F9108950E94E81BE5CF6115CD
:101800007105D1F611E0E4CF1F93CF93DF93CDB7ED
:10181000DEB763970FB6F894DEBF0FBECDBFE09181
:101820001907EF77F0E0EE5AFD4F108262E572E0A3
:10183000CE010D960E94290B65E571E0CE01079659
:101840000E94290B1A8219821C821B821E821D8211
:10185000BE01635F7F4FCE0101960E94FF0ABE0169
:10186000695F7F4FCE0101960E94A40B182FCE0115
:1018700001960E94640BCE0107960E94640B809132
:101880001A0786FF05C085FB882780F9181759F0CD
:1018900080911A0710FB85F980931A071B8BCE01E4
:1018A00043960E94A90980911A07806480931A07C1
:1018B000CE010D960E94640B62E572E0CE010D969A
:1018C0000E94290B69E571E0CE0107960E94290B61
:1018D0001A8219821C821B821E821D82BE01635FD6
:1018E0007F4FCE0101960E94FF0ABE01695F7F4FC4
:1018F000CE0101960E94A40B182FCE0101960E94E2
:10190000640BCE0107960E94640B80911B0781FF38
:1019100003C08170181759F080911B0710FB80F9E4
:1019200080931B071983CE0101960E94880980913C
:101930001B07826080931B07CE010D960E94640BEB
:101940008091190780788093190763960FB6F894F1
:10195000DEBF0FBECDBFDF91CF911F9108952F92B3
:101960003F924F925F926F927F928F929F92AF922F
:10197000BF92CF92DF92EF92FF920F931F93CF937C
:10198000DF93CDB7DEB768970FB6F894DEBF0FBE12
:10199000CDBF1C014D834A3009F488C24D3009F493
:1019A00063C220911707822F90E0B0E0A0E040963C
:1019B000A11DB11D81349105A105B10508F43CC1FB
:1019C000622F6053770B2B0109F427C16983CC2464
:1019D000DD24C61AD70A77FDC982798177707B83A7
:1019E000D7FE03C087E0C80ED11C63E0D594C7942E
:1019F0006A95E1F70D2C000CEE08FF0877E0CC0C9F
:101A0000DD1CEE1CFF1C7A95D1F781E0D1018C938F
:101A100057FE74C05101BFEFAB1ABB0A85010C0D14
:101A20001D1DC114D104E104F10441F040E054E073
:101A30004C195D09B501C8010E94CF1B3201E7E4D2
:101A40006E0E711C53E0759467945A95E1F7F1E0BE
:101A50006F1A710891012F573C4F50E040E0912CD4
:101A6000812C8B81682F70E088E090E0DC01A61B60
:101A7000B70BBA83A983F901E058FF4FD401A20F35
:101A8000B31F8E9190E0098002C0959587950A94C6
:101A9000E2F792910B8001C0990F0A94EAF7892B23
:101AA0008083E217F30769F74F5F5F4F9F0120586C
:101AB000310946155705FCF24FEF062E01C0440FC1
:101AC0000A94EAF7980120583F4FF8018081062ECA
:101AD00001C0880F0A94EAF78423D8018D938D0101
:101AE000A217B30791F7C114D104E104F10409F47A
:101AF00094C0A60170E060E0C5018DC0C114D1049E
:101B0000E104F10409F4CDC1C1010196BC016C19D5
:101B10007D09A6015C5F0E94CF1BAB80AA2009F45F
:101B20006DC081010F5F1F4FB1016F577F4F47E4B9
:101B3000642E712C6418750877FE03C027E0620ECE
:101B4000711C33E0759467943A95E1F741E0641AAB
:101B50007108980150E040E088E090E0DC01AB8043
:101B6000AA19B109BA83A983461557051CF549017D
:101B700080E8880E911CDB01F9018D91A82EB12C13
:101B8000098002C0AA0CBB1C0A94E2F7808190E095
:101B90000B8002C0959587950A94E2F78A29819374
:101BA0008E169F0651F760587F4F20583F4F4F5F6A
:101BB0005F4FDACFAB802A2D8FEF90E002C0959572
:101BC0008795AA94E2F7682FF601E058FC4FE00FE2
:101BD000F11FAF0140585F4F808190E0022E02C09C
:101BE000959587950A94E2F7862381934E175F07B0
:101BF00099F7C114D104E104F10479F04427552781
:101C00004C195D09C6019C5F70E060E091012F5F97
:101C10003F4F820F931F0E94E11B8091170790E0B6
:101C2000B0E0A0E0052C000C66087708841995093F
:101C3000A609B70980931707E09018073091170796
:101C4000E7FE02C086E008C13034E0F72D81203B7A
:101C500010F02F5F2D83AD8045E0A49EC0011124BC
:101C60004E2C512C82010E5F1F4F50E040E0BC0112
:101C700061547F4F7E8B6D8B632E712C80E490E0DE
:101C8000DC01A619B709B88BAF87B1016F5F7F4F31
:101C90007A8B698BC1018F579F4F9C8B8B8BE0E0B8
:101CA000453029F0ED89FE89E40FF51FE491CA0162
:101CB000880F991FDC01A40DB51DB887AF8370E0B4
:101CC00060E0AE2EB12CBA86A986E0FFB2C0C30197
:101CD000860F971F9C838B83AF85B889A61BB70B94
:101CE000BA83A983CF970CF49FC0CD01D82E232FA0
:101CF000260FB22FB695B695B695A0E8BA9F5001BB
:101D00001124B88EAF8A2770E8E0FE2EF21AEF2D6C
:101D1000F0E0DF01A81BB90BAA24AA94B12C02C0E1
:101D2000B594A794AA95E2F7CA2C982E9F188F8194
:101D30009885A989BA89AF88B88CAA0DBB1DBE83C6
:101D4000AD83DF01AC54BF4FBC87AB87AB89BC8987
:101D5000AA0DBB1DBE87AD878017910709F469C026
:101D6000803891050CF05EC0AB81BC81DF9730F00C
:101D7000A980BA801A141B040CF054C0AD81BE8136
:101D8000A80FB91FAA24A394F101A082222309F469
:101D90004EC0EB85FC85A491DF1408F4AC21EF89DB
:101DA000F88DE80FF91FE20DF31DB181AB2BA18374
:101DB000DF14C0F1AD85BE85A80FB91F892CF7E0EF
:101DC000F81530F5FD01B82CAA24AA94A082E05899
:101DD000FF4F0F2EF8EFAF2EF02DBA0C0F2EF7E0BD
:101DE000AF2EF02DAB1480F3E8EFAE2EA80CA69426
:101DF000A694A694B12CEFEFAE1ABE0AB694BA2CF4
:101E0000AA24B794A794AA0DBB1DF82DF7708F2EA6
:101E1000882041F0E82DF0E0E455FF4FE4918C90EC
:101E2000E829EC93019698CF82E090E05FCF8D2C6B
:101E3000C6CFE985FA85F595E7956E5F7F4F6031EE
:101E4000710509F03ECF4F5F5F4F0E5F1F4F463069
:101E5000510509F024CF8CE08E0D8093180785374B
:101E600028F0305F309317071092180781E090E058
:101E700068960FB6F894DEBF0FBECDBFDF91CF914D
:101E80001F910F91FF90EF90DF90CF90BF90AF9098
:101E90009F908F907F906F905F904F903F902F908A
:101EA0000895AB80AA2009F4B8CE3BCE80911707E5
:101EB000805F80931707D8CF1F920F920FB60F92B3
:101EC00011242F933F938F939F93AF93BF93809150
:101ED000E3019091E401A091E501B091E601309118
:101EE000E20123E0230F2D3758F50196A11DB11D06
:101EF0002093E2018093E3019093E401A093E50134
:101F0000B093E6018091E7019091E801A091E90189
:101F1000B091EA010196A11DB11D8093E701909354
:101F2000E801A093E901B093EA01BF91AF919F91BD
:101F30008F913F912F910F900FBE0F901F9018958A
:101F400026E8230F0296A11DB11DD2CF1F920F923A
:101F50000FB60F9211248F939F938091E10090917F
:101F6000E100937F9093E10083FF0FC01092E9009E
:101F700091E09093EB001092EC0092E39093ED00CF
:101F80001092F80198E09093F00082FF22C093E055
:101F90009093E9009091F200992319F09AE39093BD
:101FA000E8009091D701992341F09091D701915089
:101FB0009093D701911101C05D989091F7019923F9
:101FC00041F09091F70191509093F701911101C068
:101FD000289884FF18C08091E2008E7E81608093F3
:101FE000E2008091E1008F7E8093E1008091D80132
:101FF0008E7E80618093D8019F918F910F900FBE4C
:102000000F901F90189580FFF7CF8091E2008E7E91
:1020100080618093E2008091E1008E7E8093E100F8
:102020008091D8018E7E8160E5CF1F920F920FB60E
:102030000F921124CF92DF92EF92FF920F931F9392
:102040002F933F934F935F936F937F938F939F93C0
:10205000AF93BF93EF93FF93CF93DF93CDB7DEB7EB
:102060006C97DEBFCDBF1092E9008091E80083FF3E
:1020700025C068E0CE0145960E94D80582EF809386
:10208000E8008D8987FF39C09091E80090FFFCCF70
:10209000982F907609F034C19E894F89588D2F89E9
:1020A000F88C911131C0803861F58091D90180930D
:1020B000F1001092F1008EEF8093E8006C960FB65D
:1020C000F894DEBF0FBECDBFDF91CF91FF91EF91AE
:1020D000BF91AF919F918F917F916F915F914F9140
:1020E0003F912F911F910F91FF90EF90DF90CF9034
:1020F0000F900FBE0F901F9018959EEF9093E800E1
:10210000C7CF1092F100D5CF913059F48111D3CFC0
:102110004130510581F68091D9018D7F8093D9019D
:10212000CACF933049F48111C6CF4130510519F619
:102130008091D9018260F2CF953041F48091E8001E
:1021400080FFFCCF20682093E300B5CF963009F0E4
:10215000A9C00B8D1C8D22E01092E9001092D501D0
:102160001092D401F2122EC01092D3011092D2011B
:102170000E94A7051F8299E09983FA8291E09E83CD
:1021800090EA98879AEF99872091D4013091D501F0
:10219000275F3F4F3C832B838D831092E900109281
:1021A000D5011092D4011093D3010093D20149E0DC
:1021B00050E0BE016F5F7F4F80E00E9481050E946A
:1021C000A70579CF1093D3010093D2010E94D003C9
:1021D000DC0112960D911C910115110509F451C1F4
:1021E000D801ED91FC910480F581E02DBE016B5E7C
:1021F0007F4FC8010995009709F03EC1F80100859D
:102200001185EACFF3E0FF120EC08F89882309F40D
:1022100040C0823061F440E86DE083E296E00E94C5
:102220006613811148CF81E28093EB0047CF813064
:1022300029F440E86BE087E196E0F1CF833099F72D
:102240000E94D003DC011296ED90FC908E010F5F8E
:102250001F4F6801E114F10479F0D701ED91FC9171
:102260000680F781E02DB801C7010995080F111DFF
:10227000F701E084F184EECFD8011C92F6010190C1
:102280000020E9F73197BF016C197D0940E0C601D4
:10229000C6CF61E076E0FB01449150E080E80E9407
:1022A000810509CF973009F4BECF983021F481E041
:1022B0008093F10000CF993009F0FDCE837009F0D2
:1022C000B2CFEFE1F1E081E031E096E3219122230A
:1022D00071F08093E9003093EB00DF0111972C91AE
:1022E0002093EC009093ED008F5F873079F78EE7B5
:1022F0008093EA001092EA008F898093F801DBCE88
:102300008B8D9C8D1092E9001092D5011092D40112
:102310009093D3018093D201898D811192C08E89CF
:102320009D89913A49F4813209F07DCF47E050E030
:1023300064E071E080E0B3CF913209F074CF833272
:1023400069F48F89988DB0E0A0E0809300019093AC
:102350000101A0930201B0930301ADCE803269F474
:102360008091E80082FFFCCF67E084E091E00E946A
:10237000D8058BEF8093E8009ECE823209F09BCE89
:102380008F8980930B01EEEFFFE7859194918B3F4E
:102390009C4D51F1E0E0F8E080910401909105013D
:1023A000A0910601B0910701803B9440A105B105C1
:1023B000F1F480910B0180FD1AC0EE3F8AE0F8072E
:1023C00089F587E797E79183808380916000809308
:1023D000D60188E19BE00FB6F894A8958093600041
:1023E0000FBE9093600067CEEEEFFAE0D5CF80810C
:1023F00091818737974709F05ECEA895809160005C
:102400008861809360008091D60180936000EE3FE8
:102410002AE0F20789F08091FE0A9091FF0A9183E9
:10242000808349CE808191818737980751F29093BC
:10243000FF0A8093FE0AC5CF1092FF0A1092FE0A8F
:102440003ACE0E94D003DC0112960D911C91011529
:10245000110509F4E8CED801ED91FC910190F081CD
:10246000E02DBE016B5E7F4FC8010995811123CE1F
:10247000F80100851185EBCF181619060CF41BCE58
:10248000D2CEF1E0FF12BECE65E076E004CF1F921F
:102490000F920FB60F9211242F933F934F935F9398
:1024A0006F937F938F939F93AF93BF93EF93FF931C
:1024B0008091B900887F803609F44AC0F0F58832EF
:1024C00009F4A7C018F5803109F49BC0B8F488233B
:1024D00009F4F9C0883009F494C0FF91EF91BF91DD
:1024E000AF919F918F917F916F915F914F913F91AC
:1024F0002F910F900FBE0F901F901895883109F4FF
:1025000088C0803251F780931D0214C0803409F4D2
:102510009DC040F48033B9F38833F9F680931D02EF
:1025200085ECB0C0803509F485C0883509F496C0C3
:10253000883499F60E946C0BD0CF883909F48CC08E
:1025400038F5883729F050F4883611F0803729F6AD
:1025500083E080931F021092D10157C0883809F49C
:102560007BC0803919F0803809F0B7CF8091D10154
:10257000803208F071C0E091D10181E08E0F80932C
:10258000D1018091BB00F0E0EF54FE4F80833DC04D
:10259000803B39F0E0F4803A09F479C0883A09F0D8
:1025A0009CCF84E080931F021092B0011092AF0183
:1025B000E091DC01F091DD0109958091AF0181117D
:1025C0000FC081E08093AF0110928F0109C0803C61
:1025D00009F4A6CF883C09F4A3CF883B09F07DCF4E
:1025E000E091B00181E08E0F8093B001F0E0E157FF
:1025F000FE4F80818093BB009091B0018091AF012C
:1026000029C08091FA018093BB0085EC8093BC00C7
:1026100064CF90911C0280911B02981758F5E091AD
:102620001C0281E08E0F80931C02F0E0E550FE4F0B
:102630008081E9CFE0911C0281E08E0F80931C0223
:102640008091BB00F0E0E550FE4F808390911C022A
:1026500080911B029817C8F285E8D8CFE0911C0240
:1026600081E08E0F80931C028091BB00F0E0E5506A
:10267000FE4F808380911E0281115CCF81E08093A8
:10268000F90184EA8093BC0010921F0226CF85ECEA
:102690008093BC0010921F028091D101803230F4EF
:1026A000E091D101F0E0EF54FE4F10826091D10132
:1026B00070E0E091DA01F091DB0181EB91E00995A6
:1026C0001092D1010ACF10921D0234CFEF92FF92E7
:1026D0000F931F93CF93DF93F82E192FE62E042F1D
:1026E00081E0860F880F0E94530583E00E94530506
:1026F000CF2DD12FEC0EFD2EF11CCE15DF05B9F03C
:1027000007FF13C0FE0184910E945305182F80E03B
:102710000E945305812321968111EFCFDF91CF9144
:102720001F910F91FF90EF9008958881EDCF81E088
:10273000F5CF0F931F93CF93DF9300D000D000D03D
:10274000CDB7DEB7E7EBF2E01382128288EE93E0BA
:10275000A0E0B0E084839583A683B78325E331E0CE
:10276000318320832FEF3FEF35872487E7E0F3E0C5
:102770001382128284839583A683B78387E491E0D2
:102780009183808361E087E00E94BA0460E087E083
:102790000E94590461E08AE00E94BA0460E08AE085
:1027A0000E9459040AE117E0F8018081817F84606A
:1027B0008F7E80836CE671E0CE0101960E94290B2A
:1027C000F80180818F7B8083CE0101960E94640B8B
:1027D000E9E1F7E0808180788083F80180818F775C
:1027E00080836CE671E0CE0101960E94290B0BE11B
:1027F00017E0F80180818D7F8083CE0101960E94D1
:10280000640BF8018081837F8F7E808381E08093D9
:10281000130326960FB6F894DEBF0FBECDBFDF912F
:10282000CF911F910F910895CF93DF93CDB7DEB76E
:1028300069970FB6F894DEBF0FBECDBF789484B50C
:10284000826084BD84B5816084BD85B5826085BDAC
:1028500085B5816085BD80916E00816080936E003A
:10286000109281008091810082608093810080912C
:1028700081008160809381008091800081608093DD
:1028800080008091910082608093910080919100FE
:10289000816080939100809190008160809390008E
:1028A0008091C10084608093C1008091C1008260EA
:1028B0008093C1008091C10081608093C1008091AC
:1028C000C30081608093C3008091C00082608093C8
:1028D000C0008091C20081608093C20080917A0024
:1028E000846080937A0080917A00826080937A007D
:1028F00080917A00816080937A0080917A0080686C
:1029000080937A001092F8011092D9011092D801A8
:102910008091D70081608093D70080EA8093D800AF
:1029200089B5806189BD89B5826089BD09B400FE21
:10293000FDCF0E9410058091D8008F7C806180932C
:10294000D8008091E000807F8093E0008091E100DA
:102950008E7E8093E1008DE08093E200559A209A6C
:102960005D9828988FEF9FEF9093C4028093C302E5
:102970001092DF011092DE0110922602109248029E
:102980000E943B0788E295E09093DD018093DC0193
:1029900089E295E09093DB018093DA018AE59AE081
:1029A0009093E1018093E00160E085E00E94BA0429
:1029B00060E08BE10E94BA0461E088E00E94BA0402
:1029C0000E94FA090E940C0A80911A078D7F846088
:1029D00080931A0783FD07C080911B0784FF03C003
:1029E0008F7E80931B070E94EB04609349027093D3
:1029F0004A0280934B0290934C0280911A078061A7
:102A000080931A0786FD08C08F7D80931A07198E60
:102A1000CE0149960E94A90980911A078F77809369
:102A20001A0780911B0781FD08C08E7F80931B07CA
:102A3000188ECE0148960E94880980911B078B7FD3
:102A400080931B0783FB882780F98F8BCE014796E5
:102A50000E94870480911B078F7E80931B0767E08D
:102A600070E085E496E00E94390984E10E94200923
:102A70006FE070E086E396E00E94390981EF0E94E2
:102A8000200981E80E9420098FEC0E94200965E05E
:102A900070E081E396E00E943909E4E1F3E080E030
:102AA00094E0DF019C011D9221503040E1F781E06C
:102AB00080931303CF010E94E7081092130389E269
:102AC000282E81E0382E93E1A92E93E0B92E2FEA2B
:102AD000822E2CE0922E0E940C0ACE0101967C01DF
:102AE0006C01712C612C8C0187EB92E00E94B8067E
:102AF00097FD1BC0D6018D936D01BFEF6B1A7B0A4A
:102B0000E4E16E16710481F76E0C7F1C6E147F0475
:102B100079F0D701DD907D01BAE0DB16B9F3EDE085
:102B2000DE1279C00E94040CF1CF6114710461F7C8
:102B30008BE10E9430040E94F109882309F493C0BC
:102B40008BE10E943004892B09F47CC080911A0724
:102B5000816080931A0780911A0784FF29C00E9420
:102B6000EB040091490210914A0220914B023091EE
:102B70004C02601B710B820B930B6032714A8740D1
:102B80009105B0F080911A078F7E80931A0780918B
:102B9000140190911501A0911601B0911701B05840
:102BA00080930C0190930D01A0930E01B0930F013F
:102BB00080911B0783FF1DC00E94EB0400914E0211
:102BC00010914F022091500230915102601B710B05
:102BD000820B930B6032714A8740910550F08091CF
:102BE0001B07877F80931B071D8ACE0145960E9495
:102BF000870480911303882331F084E193E00E94DD
:102C0000E70810921303E0E0F0E0EF2B09F463CF44
:102C10000E94000060CF809119078F77843610F0F2
:102C20000E94040C80911907982F9F77E92FF0E0FC
:102C3000EE5AFD4FD0829F5F9F778078892B8093DB
:102C4000190764CF0E944E090E944E176093140129
:102C500070931501809316019093170180911A07C4
:102C60008E7F80931A0720910C0130910D014091C5
:102C70000E0150910F016091140170911501809126
:102C80001601909117010E94A51820911001309112
:102C9000110140911201509113010E9411196B0111
:102CA0007C010E94F109882309F443C020E030E54B
:102CB00043E457E4C701B6010E94B219712C87FFA3
:102CC0000FC07724739420E030E44CE156E4C70150
:102CD000B6010E94491718160CF4712CF1E07F26FA
:102CE00080911B0784FB992790F97916E9F070FA17
:102CF00084F980931B077720B9F083FD15C00E94EB
:102D0000EB0460934E0270934F02809350029093B5
:102D1000510280911B07886080931B0721E02E8B56
:102D2000CE0146960E94870480911A07886080939E
:102D30001A071C821B823A822982BE82AD82B88623
:102D4000AF829A868986A7019601C701B6010E94C3
:102D5000B7196EE571E081111AC026013701E894B8
:102D600077F82FEF3FEF4FE75FE7C301B2010E9413
:102D7000B719811115C02FEF3FEF4FE75FE7C30190
:102D8000B2010E94491718165CF462E671E0C801AE
:102D90000E946F0A6AE671E0C8010E946F0ADBCEEA
:102DA0002FEF3FEF4FE75FE4C701B6010E94B21972
:102DB00018161CF466E671E0EACF2FEF3FEF4FE7FD
:102DC0005FECC701B6010E94491787FDF3CF20E0F1
:102DD00030E0A901C701B6010E94491787FF08C06A
:102DE0006DE2C8010E944C0AF7FAF094F7F8F094EB
:102DF0002AE037ED43EA5BE3C701B6010E94A5185C
:102E00002B013C010E9483196B017C010E944E172B
:102E10009B01AC01C301B2010E94A4182B013C012B
:102E20002AE0B701A601C8010E94790A6EE2C80132
:102E30000E944C0A20E030E040E251E4C301B201BC
:102E40000E94AF172B013C010E9483196B01F12CEA
:102E5000E12C2AE0B701A601C8010E94790AC70146
:102E6000B6010E944E179B01AC01C301B2010E9442
:102E7000A41820E030E040E251E40E94AF170E9425
:102E80008319AB0170E060E02AE0C8010E94790A72
:102E900081CF0E948B1708F481E00895E89409C05F
:102EA00097FB3EF490958095709561957F4F8F4F7D
:102EB0009F4F9923A9F0F92F96E9BB279395F69593
:102EC000879577956795B795F111F8CFFAF4BB0F11
:102ED00011F460FF1BC06F5F7F4F8F4F9F4F16C075
:102EE000882311F096E911C0772321F09EE8872FFF
:102EF000762F05C0662371F096E8862F70E060E0BB
:102F00002AF09A95660F771F881FDAF7880F969533
:102F1000879597F90895990F0008550FAA0BE0E8D7
:102F2000FEEF16161706E807F907C0F0121613068B
:102F3000E407F50798F0621B730B840B950B39F4CB
:102F40000A2661F0232B242B252B21F408950A2631
:102F500009F4A140A6958FEF811D811D08950E945F
:102F6000C2170C9433180E94251838F00E942C18B0
:102F700020F0952311F00C941C180C9422181124A5
:102F80000C9467180E94441870F3959FC1F3950F35
:102F900050E0551F629FF001729FBB27F00DB11DDD
:102FA000639FAA27F00DB11DAA1F649F6627B00D6D
:102FB000A11D661F829F2227B00DA11D621F739F56
:102FC000B00DA11D621F839FA00D611D221F749F64
:102FD0003327A00D611D231F849F600D211D822FAB
:102FE000762F6A2F11249F5750409AF0F1F08823D2
:102FF0004AF0EE0FFF1FBB1F661F771F881F9150FF
:103000005040A9F79E3F510580F00C941C180C9479
:1030100067185F3FE4F3983ED4F3869577956795FC
:10302000B795F795E7959F5FC1F7FE2B880F911D28
:103030009695879597F9089597F99F6780E870E0CE
:1030400060E008959FEF80EC089500240A9416161E
:10305000170618060906089500240A941216130686
:10306000140605060895092E0394000C11F4882314
:1030700052F0BB0F40F4BF2B11F460FF04C06F5F30
:103080007F4F8F4F9F4F089557FD9058440F551F06
:1030900059F05F3F71F04795880F97FB991F61F0DA
:1030A0009F3F79F087950895121613061406551F51
:1030B000F2CF4695F1DF08C0161617061806991FBD
:1030C000F1CF86957105610508940895E894BB27B2
:1030D00066277727CB0197F908952F923F924F9259
:1030E0005F926F927F928F929F92AF92BF92CF9298
:1030F000DF92EF92FF920F931F93CF93DF93CDB7A1
:10310000DEB7CA1BDB0B0FB6F894DEBF0FBECDBF18
:1031100009942A88398848885F846E847D848C84E9
:103120009B84AA84B984C884DF80EE80FD800C81F2
:103130001B81AA81B981CE0FD11D0FB6F894DEBFD5
:103140000FBECDBFED0108955058BB27AA270E949E
:10315000BC180C9433180E94251838F00E942C18C3
:1031600020F039F49F3F19F426F40C9422180EF441
:10317000E095E7FB0C941C18E92F0E94441858F3C3
:10318000BA17620773078407950720F079F4A6F54C
:103190000C9466180EF4E0950B2EBA2FA02D0B019F
:1031A000B90190010C01CA01A0011124FF27591B8C
:1031B00099F0593F50F4503E68F11A16F040A22F92
:1031C000232F342F4427585FF3CF46953795279503
:1031D000A795F0405395C9F77EF41F16BA0B620B02
:1031E000730B840BBAF09150A1F0FF0FBB1F661F49
:1031F000771F881FC2F70EC0BA0F621F731F841F8C
:1032000048F4879577956795B795F7959E3F08F0B1
:10321000B0CF9395880F08F09927EE0F9795879573
:1032200008950E9425190C9433180E942C1858F008
:103230000E94251840F029F45F3F29F00C941C18D7
:1032400051110C9467180C9422180E94441868F3CA
:103250009923B1F3552391F3951B550BBB27AA274F
:1032600062177307840738F09F5F5F4F220F331F89
:10327000441FAA1FA9F335D00E2E3AF0E0E832D051
:1032800091505040E695001CCAF72BD0FE2F29D054
:10329000660F771F881FBB1F261737074807AB0726
:1032A000B0E809F0BB0B802DBF01FF2793585F4F9B
:1032B0003AF09E3F510578F00C941C180C94671856
:1032C0005F3FE4F3983ED4F3869577956795B7957D
:1032D000F7959F5FC9F7880F911D9695879597F988
:1032E0000895E1E0660F771F881FBB1F6217730701
:1032F0008407BA0720F0621B730B840BBA0BEE1F16
:1033000088F7E09508950E944C1888F09F5798F030
:10331000B92F9927B751B0F0E1F0660F771F881FDA
:10332000991F1AF0BA95C9F714C0B13091F00E94F4
:103330006618B1E008950C946618672F782F8827D7
:10334000B85F39F0B93FCCF3869577956795B3951B
:10335000D9F73EF490958095709561957F4F8F4F8A
:103360009F4F08950E948B1708F48FEF08950E94D5
:103370008B17880B990B0895A1E21A2EAA1BBB1B71
:10338000FD010DC0AA1FBB1FEE1FFF1FA217B30731
:10339000E407F50720F0A21BB30BE40BF50B661F47
:1033A000771F881F991F1A9469F76095709580950B
:1033B00090959B01AC01BD01CF010895EE0FFF1F59
:1033C0000590F491E02D09940F931F93CF93DF9311
:1033D0008230910510F482E090E0E0911E07F091B8
:1033E0001F0730E020E0B0E0A0E0309799F421150D
:1033F000310509F44AC0281B390B24303105D8F5B2
:103400008A819B816115710589F1FB019383828318
:10341000FE0111C040815181028113814817590773
:10342000E0F04817590799F4109761F012960C9341
:10343000129713961C933296CF01DF91CF911F9173
:103440000F91089500931E0710931F07F4CF2115C5
:10345000310551F04217530738F0A901DB019A01F9
:10346000BD01DF01F801C1CFEF01F9CF90931F0734
:1034700080931E07CDCFFE01E20FF31F819391933E
:103480002250310939832883D7CF20911C073091EE
:103490001D07232B41F420911A0130911B01309319
:1034A0001D0720931C072091180130911901211547
:1034B000310541F42DB73EB740911C0150911D01DB
:1034C000241B350BE0911C07F0911D07E217F30751
:1034D000A0F42E1B3F0B2817390778F0AC014E5F84
:1034E0005F4F2417350748F04E0F5F1F50931D079D
:1034F00040931C07819391939FCFF0E0E0E09CCF35
:10350000CF93DF930097E9F0FC0132971382128288
:10351000A0911E07B0911F07ED0130E020E0109749
:10352000A1F420813181820F931F20911C073091DB
:103530001D072817390709F061C0F0931D07E093B4
:103540001C07DF91CF910895EA01CE17DF07E8F558
:103550004A815B819E0141155105B1F7E901FB8369
:10356000EA8349915991C40FD51FEC17FD0761F407
:10357000808191810296840F951FE9019983888348
:10358000828193819B838A83F0E0E0E012968D91A3
:103590009C9113970097B9F52D913C911197CD010E
:1035A0000296820F931F20911C0730911D07281748
:1035B000390739F6309751F510921F0710921E0700
:1035C000B0931D07A0931C07BCCFD383C283408157
:1035D0005181840F951FC817D90761F44E5F5F4F63
:1035E00088819981480F591F518340838A819B812B
:1035F000938382832115310509F0B0CFF0931F0723
:10360000E0931E079ECFFD01DC01C0CF1382128222
:10361000D7CFB0E0A0E0EFE0FBE10C946F188C0195
:10362000009751F4CB010E94E4198C01C801CDB779
:10363000DEB7E0E10C948B18FC01E60FF71F9C014C
:1036400022503109E217F30708F49DC0D901CD914A
:10365000DC911197C617D70798F0C530D10530F324
:10366000CE0104978617970708F3C61BD70B22973E
:10367000C193D1936D937C93CF010E94801AD6CFD2
:103680005B01AC1ABD0A4C018C0E9D1EA0911E0759
:10369000B0911F07512C412CF12CE12C109731F5E2
:1036A00080911C0790911D078815990509F05CC051
:1036B0004616570608F058C08091180190911901DC
:1036C000009741F48DB79EB740911C0150911D01A8
:1036D000841B950BE817F90708F055C0F0931D07F8
:1036E000E0931C07F90171836083A0CF8D919C91B9
:1036F000119712966C90129713967C901397A815B9
:10370000B90559F56C0142E0C40ED11CCA14DB04A2
:1037100020F1AC014A195B09DA011296159780F085
:103720006282738251834083D9016D937C93E1144B
:10373000F10471F0D7011396FC93EE93129776CFB4
:1037400022968C0F9D1FF90191838083F301EFCFA7
:10375000F0931F07E0931E0769CF4816590608F437
:103760002C017D01D3019ACFCB010E94E4197C0189
:10377000009749F0AE01B8010E94C61BC8010E9423
:10378000801A870153CF10E000E050CFFB01DC012D
:1037900002C001900D9241505040D8F7089568172B
:1037A000790768F4FB01DC01E40FF51FA40FB51FD6
:1037B00002C002900E9241505040D8F708950C94E8
:1037C000C61BDC0101C06D9341505040E0F70895E5
:1037D000FB01DC018D91019080190110D9F3990B47
:1037E0000895FB01DC0101900D920020E1F708959E
:0437F000F894FFCF7B
:1037F400FFFFFFFF00E100000000000000000000E8
:103804000000803F0000000000002007800000C18D
:103814008081000000000000004C0AE5056C0A6B82
:103824000A0000000093061206B406A906FA06B8B8
:1038340006D60600000000B8088B086C0A610884EC
:10384400087108620863616C007A65726F006E61CA
:0E3854006E00696E66006F7666000D0A000059
:00000001FF
